{
	"contracts/variables.sol": {
		"Variables": {
			"abi": [
				{
					"anonymous": false,
					"inputs": [
						{
							"indexed": false,
							"internalType": "bytes",
							"name": "data",
							"type": "bytes"
						}
					],
					"name": "Log",
					"type": "event"
				},
				{
					"inputs": [],
					"name": "getBlockDetails",
					"outputs": [
						{
							"internalType": "uint256",
							"name": "",
							"type": "uint256"
						},
						{
							"internalType": "address",
							"name": "",
							"type": "address"
						},
						{
							"internalType": "uint256",
							"name": "",
							"type": "uint256"
						},
						{
							"internalType": "uint256",
							"name": "",
							"type": "uint256"
						}
					],
					"stateMutability": "view",
					"type": "function"
				},
				{
					"inputs": [],
					"name": "getData",
					"outputs": [],
					"stateMutability": "nonpayable",
					"type": "function"
				},
				{
					"inputs": [],
					"name": "name",
					"outputs": [
						{
							"internalType": "string",
							"name": "",
							"type": "string"
						}
					],
					"stateMutability": "view",
					"type": "function"
				},
				{
					"inputs": [],
					"name": "numberOfNfts",
					"outputs": [
						{
							"internalType": "uint256",
							"name": "",
							"type": "uint256"
						}
					],
					"stateMutability": "view",
					"type": "function"
				},
				{
					"inputs": [
						{
							"internalType": "string",
							"name": "newName",
							"type": "string"
						}
					],
					"name": "setName",
					"outputs": [
						{
							"internalType": "string",
							"name": "",
							"type": "string"
						}
					],
					"stateMutability": "view",
					"type": "function"
				}
			],
			"devdoc": {
				"kind": "dev",
				"methods": {},
				"version": 1
			},
			"evm": {
				"assembly": "    /* \"contracts/variables.sol\":61:582  contract Variables {\r... */\n  mstore(0x40, 0x80)\n    /* \"contracts/variables.sol\":87:121  string public name = \"CryptoPunks\" */\n  mload(0x40)\n  dup1\n  0x40\n  add\n  0x40\n  mstore\n  dup1\n  0x0b\n  dup2\n  mstore\n  0x20\n  add\n  0x43727970746f50756e6b73000000000000000000000000000000000000000000\n  dup2\n  mstore\n  pop\n  0x00\n  swap1\n  dup1\n  mload\n  swap1\n  0x20\n  add\n  swap1\n  tag_1\n  swap3\n  swap2\n  swap1\n  tag_2\n  jump\t// in\ntag_1:\n  pop\n    /* \"contracts/variables.sol\":158:161  100 */\n  0x64\n    /* \"contracts/variables.sol\":128:161  uint256 public numberOfNfts = 100 */\n  0x01\n  sstore\n    /* \"contracts/variables.sol\":61:582  contract Variables {\r... */\n  callvalue\n  dup1\n  iszero\n  tag_3\n  jumpi\n  0x00\n  dup1\n  revert\ntag_3:\n  pop\n  jump(tag_4)\ntag_2:\n  dup3\n  dup1\n  sload\n  tag_5\n  swap1\n  tag_6\n  jump\t// in\ntag_5:\n  swap1\n  0x00\n  mstore\n  keccak256(0x00, 0x20)\n  swap1\n  0x1f\n  add\n  0x20\n  swap1\n  div\n  dup2\n  add\n  swap3\n  dup3\n  tag_8\n  jumpi\n  0x00\n  dup6\n  sstore\n  jump(tag_7)\ntag_8:\n  dup3\n  0x1f\n  lt\n  tag_9\n  jumpi\n  dup1\n  mload\n  not(0xff)\n  and\n  dup4\n  dup1\n  add\n  or\n  dup6\n  sstore\n  jump(tag_7)\ntag_9:\n  dup3\n  dup1\n  add\n  0x01\n  add\n  dup6\n  sstore\n  dup3\n  iszero\n  tag_7\n  jumpi\n  swap2\n  dup3\n  add\ntag_10:\n  dup3\n  dup2\n  gt\n  iszero\n  tag_11\n  jumpi\n  dup3\n  mload\n  dup3\n  sstore\n  swap2\n  0x20\n  add\n  swap2\n  swap1\n  0x01\n  add\n  swap1\n  jump(tag_10)\ntag_11:\ntag_7:\n  pop\n  swap1\n  pop\n  tag_12\n  swap2\n  swap1\n  tag_13\n  jump\t// in\ntag_12:\n  pop\n  swap1\n  jump\t// out\ntag_13:\ntag_14:\n  dup1\n  dup3\n  gt\n  iszero\n  tag_15\n  jumpi\n  0x00\n  dup2\n  0x00\n  swap1\n  sstore\n  pop\n  0x01\n  add\n  jump(tag_14)\ntag_15:\n  pop\n  swap1\n  jump\t// out\n    /* \"#utility.yul\":7:327   */\ntag_6:\n    /* \"#utility.yul\":51:57   */\n  0x00\n    /* \"#utility.yul\":88:89   */\n  0x02\n    /* \"#utility.yul\":82:86   */\n  dup3\n    /* \"#utility.yul\":78:90   */\n  div\n    /* \"#utility.yul\":68:90   */\n  swap1\n  pop\n    /* \"#utility.yul\":135:136   */\n  0x01\n    /* \"#utility.yul\":129:133   */\n  dup3\n    /* \"#utility.yul\":125:137   */\n  and\n    /* \"#utility.yul\":156:174   */\n  dup1\n    /* \"#utility.yul\":146:227   */\n  tag_18\n  jumpi\n    /* \"#utility.yul\":212:216   */\n  0x7f\n    /* \"#utility.yul\":204:210   */\n  dup3\n    /* \"#utility.yul\":200:217   */\n  and\n    /* \"#utility.yul\":190:217   */\n  swap2\n  pop\n    /* \"#utility.yul\":146:227   */\ntag_18:\n    /* \"#utility.yul\":274:276   */\n  0x20\n    /* \"#utility.yul\":266:272   */\n  dup3\n    /* \"#utility.yul\":263:277   */\n  lt\n    /* \"#utility.yul\":243:261   */\n  dup2\n    /* \"#utility.yul\":240:278   */\n  eq\n    /* \"#utility.yul\":237:321   */\n  iszero\n  tag_19\n  jumpi\n    /* \"#utility.yul\":293:311   */\n  tag_20\n  tag_21\n  jump\t// in\ntag_20:\n    /* \"#utility.yul\":237:321   */\ntag_19:\n    /* \"#utility.yul\":58:327   */\n  pop\n    /* \"#utility.yul\":7:327   */\n  swap2\n  swap1\n  pop\n  jump\t// out\n    /* \"#utility.yul\":333:513   */\ntag_21:\n    /* \"#utility.yul\":381:458   */\n  0x4e487b7100000000000000000000000000000000000000000000000000000000\n    /* \"#utility.yul\":378:379   */\n  0x00\n    /* \"#utility.yul\":371:459   */\n  mstore\n    /* \"#utility.yul\":478:482   */\n  0x22\n    /* \"#utility.yul\":475:476   */\n  0x04\n    /* \"#utility.yul\":468:483   */\n  mstore\n    /* \"#utility.yul\":502:506   */\n  0x24\n    /* \"#utility.yul\":499:500   */\n  0x00\n    /* \"#utility.yul\":492:507   */\n  revert\n    /* \"contracts/variables.sol\":61:582  contract Variables {\r... */\ntag_4:\n  dataSize(sub_0)\n  dup1\n  dataOffset(sub_0)\n  0x00\n  codecopy\n  0x00\n  return\nstop\n\nsub_0: assembly {\n        /* \"contracts/variables.sol\":61:582  contract Variables {\r... */\n      mstore(0x40, 0x80)\n      callvalue\n      dup1\n      iszero\n      tag_1\n      jumpi\n      0x00\n      dup1\n      revert\n    tag_1:\n      pop\n      jumpi(tag_2, lt(calldatasize, 0x04))\n      shr(0xe0, calldataload(0x00))\n      dup1\n      0x06fdde03\n      eq\n      tag_3\n      jumpi\n      dup1\n      0x3bc5de30\n      eq\n      tag_4\n      jumpi\n      dup1\n      0x857a76ec\n      eq\n      tag_5\n      jumpi\n      dup1\n      0xbd38216e\n      eq\n      tag_6\n      jumpi\n      dup1\n      0xc47f0027\n      eq\n      tag_7\n      jumpi\n    tag_2:\n      0x00\n      dup1\n      revert\n        /* \"contracts/variables.sol\":87:121  string public name = \"CryptoPunks\" */\n    tag_3:\n      tag_8\n      tag_9\n      jump\t// in\n    tag_8:\n      mload(0x40)\n      tag_10\n      swap2\n      swap1\n      tag_11\n      jump\t// in\n    tag_10:\n      mload(0x40)\n      dup1\n      swap2\n      sub\n      swap1\n      return\n        /* \"contracts/variables.sol\":305:395  function getData() public {\r... */\n    tag_4:\n      tag_12\n      tag_13\n      jump\t// in\n    tag_12:\n      stop\n        /* \"contracts/variables.sol\":128:161  uint256 public numberOfNfts = 100 */\n    tag_5:\n      tag_14\n      tag_15\n      jump\t// in\n    tag_14:\n      mload(0x40)\n      tag_16\n      swap2\n      swap1\n      tag_17\n      jump\t// in\n    tag_16:\n      mload(0x40)\n      dup1\n      swap2\n      sub\n      swap1\n      return\n        /* \"contracts/variables.sol\":403:567  function getBlockDetails() public view returns (uint, address, uint, uint){\r... */\n    tag_6:\n      tag_18\n      tag_19\n      jump\t// in\n    tag_18:\n      mload(0x40)\n      tag_20\n      swap5\n      swap4\n      swap3\n      swap2\n      swap1\n      tag_21\n      jump\t// in\n    tag_20:\n      mload(0x40)\n      dup1\n      swap2\n      sub\n      swap1\n      return\n        /* \"contracts/variables.sol\":170:266  function setName(string memory newName) public view returns ( string memory ) {\r... */\n    tag_7:\n      tag_22\n      0x04\n      dup1\n      calldatasize\n      sub\n      dup2\n      add\n      swap1\n      tag_23\n      swap2\n      swap1\n      tag_24\n      jump\t// in\n    tag_23:\n      tag_25\n      jump\t// in\n    tag_22:\n      mload(0x40)\n      tag_26\n      swap2\n      swap1\n      tag_11\n      jump\t// in\n    tag_26:\n      mload(0x40)\n      dup1\n      swap2\n      sub\n      swap1\n      return\n        /* \"contracts/variables.sol\":87:121  string public name = \"CryptoPunks\" */\n    tag_9:\n      0x00\n      dup1\n      sload\n      tag_27\n      swap1\n      tag_28\n      jump\t// in\n    tag_27:\n      dup1\n      0x1f\n      add\n      0x20\n      dup1\n      swap2\n      div\n      mul\n      0x20\n      add\n      mload(0x40)\n      swap1\n      dup2\n      add\n      0x40\n      mstore\n      dup1\n      swap3\n      swap2\n      swap1\n      dup2\n      dup2\n      mstore\n      0x20\n      add\n      dup3\n      dup1\n      sload\n      tag_29\n      swap1\n      tag_28\n      jump\t// in\n    tag_29:\n      dup1\n      iszero\n      tag_30\n      jumpi\n      dup1\n      0x1f\n      lt\n      tag_31\n      jumpi\n      0x0100\n      dup1\n      dup4\n      sload\n      div\n      mul\n      dup4\n      mstore\n      swap2\n      0x20\n      add\n      swap2\n      jump(tag_30)\n    tag_31:\n      dup3\n      add\n      swap2\n      swap1\n      0x00\n      mstore\n      keccak256(0x00, 0x20)\n      swap1\n    tag_32:\n      dup2\n      sload\n      dup2\n      mstore\n      swap1\n      0x01\n      add\n      swap1\n      0x20\n      add\n      dup1\n      dup4\n      gt\n      tag_32\n      jumpi\n      dup3\n      swap1\n      sub\n      0x1f\n      and\n      dup3\n      add\n      swap2\n    tag_30:\n      pop\n      pop\n      pop\n      pop\n      pop\n      dup2\n      jump\t// out\n        /* \"contracts/variables.sol\":305:395  function getData() public {\r... */\n    tag_13:\n      jump\t// out\n        /* \"contracts/variables.sol\":128:161  uint256 public numberOfNfts = 100 */\n    tag_15:\n      sload(0x01)\n      dup2\n      jump\t// out\n        /* \"contracts/variables.sol\":403:567  function getBlockDetails() public view returns (uint, address, uint, uint){\r... */\n    tag_19:\n        /* \"contracts/variables.sol\":451:455  uint */\n      0x00\n        /* \"contracts/variables.sol\":457:464  address */\n      dup1\n        /* \"contracts/variables.sol\":466:470  uint */\n      0x00\n        /* \"contracts/variables.sol\":472:476  uint */\n      dup1\n        /* \"contracts/variables.sol\":497:509  block.number */\n      number\n        /* \"contracts/variables.sol\":511:525  block.coinbase */\n      coinbase\n        /* \"contracts/variables.sol\":527:542  block.timestamp */\n      timestamp\n        /* \"contracts/variables.sol\":544:558  block.gaslimit */\n      gaslimit\n        /* \"contracts/variables.sol\":489:559  return (block.number, block.coinbase, block.timestamp, block.gaslimit) */\n      swap4\n      pop\n      swap4\n      pop\n      swap4\n      pop\n      swap4\n      pop\n        /* \"contracts/variables.sol\":403:567  function getBlockDetails() public view returns (uint, address, uint, uint){\r... */\n      swap1\n      swap2\n      swap3\n      swap4\n      jump\t// out\n        /* \"contracts/variables.sol\":170:266  function setName(string memory newName) public view returns ( string memory ) {\r... */\n    tag_25:\n        /* \"contracts/variables.sol\":232:245  string memory */\n      0x60\n        /* \"contracts/variables.sol\":170:266  function setName(string memory newName) public view returns ( string memory ) {\r... */\n      swap2\n      swap1\n      pop\n      jump\t// out\n        /* \"#utility.yul\":7:419   */\n    tag_37:\n        /* \"#utility.yul\":85:90   */\n      0x00\n        /* \"#utility.yul\":110:176   */\n      tag_39\n        /* \"#utility.yul\":126:175   */\n      tag_40\n        /* \"#utility.yul\":168:174   */\n      dup5\n        /* \"#utility.yul\":126:175   */\n      tag_41\n      jump\t// in\n    tag_40:\n        /* \"#utility.yul\":110:176   */\n      tag_42\n      jump\t// in\n    tag_39:\n        /* \"#utility.yul\":101:176   */\n      swap1\n      pop\n        /* \"#utility.yul\":199:205   */\n      dup3\n        /* \"#utility.yul\":192:197   */\n      dup2\n        /* \"#utility.yul\":185:206   */\n      mstore\n        /* \"#utility.yul\":237:241   */\n      0x20\n        /* \"#utility.yul\":230:235   */\n      dup2\n        /* \"#utility.yul\":226:242   */\n      add\n        /* \"#utility.yul\":275:278   */\n      dup5\n        /* \"#utility.yul\":266:272   */\n      dup5\n        /* \"#utility.yul\":261:264   */\n      dup5\n        /* \"#utility.yul\":257:273   */\n      add\n        /* \"#utility.yul\":254:279   */\n      gt\n        /* \"#utility.yul\":251:363   */\n      iszero\n      tag_43\n      jumpi\n        /* \"#utility.yul\":282:361   */\n      tag_44\n      tag_45\n      jump\t// in\n    tag_44:\n        /* \"#utility.yul\":251:363   */\n    tag_43:\n        /* \"#utility.yul\":372:413   */\n      tag_46\n        /* \"#utility.yul\":406:412   */\n      dup5\n        /* \"#utility.yul\":401:404   */\n      dup3\n        /* \"#utility.yul\":396:399   */\n      dup6\n        /* \"#utility.yul\":372:413   */\n      tag_47\n      jump\t// in\n    tag_46:\n        /* \"#utility.yul\":91:419   */\n      pop\n        /* \"#utility.yul\":7:419   */\n      swap4\n      swap3\n      pop\n      pop\n      pop\n      jump\t// out\n        /* \"#utility.yul\":439:779   */\n    tag_48:\n        /* \"#utility.yul\":495:500   */\n      0x00\n        /* \"#utility.yul\":544:547   */\n      dup3\n        /* \"#utility.yul\":537:541   */\n      0x1f\n        /* \"#utility.yul\":529:535   */\n      dup4\n        /* \"#utility.yul\":525:542   */\n      add\n        /* \"#utility.yul\":521:548   */\n      slt\n        /* \"#utility.yul\":511:633   */\n      tag_50\n      jumpi\n        /* \"#utility.yul\":552:631   */\n      tag_51\n      tag_52\n      jump\t// in\n    tag_51:\n        /* \"#utility.yul\":511:633   */\n    tag_50:\n        /* \"#utility.yul\":669:675   */\n      dup2\n        /* \"#utility.yul\":656:676   */\n      calldataload\n        /* \"#utility.yul\":694:773   */\n      tag_53\n        /* \"#utility.yul\":769:772   */\n      dup5\n        /* \"#utility.yul\":761:767   */\n      dup3\n        /* \"#utility.yul\":754:758   */\n      0x20\n        /* \"#utility.yul\":746:752   */\n      dup7\n        /* \"#utility.yul\":742:759   */\n      add\n        /* \"#utility.yul\":694:773   */\n      tag_37\n      jump\t// in\n    tag_53:\n        /* \"#utility.yul\":685:773   */\n      swap2\n      pop\n        /* \"#utility.yul\":501:779   */\n      pop\n        /* \"#utility.yul\":439:779   */\n      swap3\n      swap2\n      pop\n      pop\n      jump\t// out\n        /* \"#utility.yul\":785:1294   */\n    tag_24:\n        /* \"#utility.yul\":854:860   */\n      0x00\n        /* \"#utility.yul\":903:905   */\n      0x20\n        /* \"#utility.yul\":891:900   */\n      dup3\n        /* \"#utility.yul\":882:889   */\n      dup5\n        /* \"#utility.yul\":878:901   */\n      sub\n        /* \"#utility.yul\":874:906   */\n      slt\n        /* \"#utility.yul\":871:990   */\n      iszero\n      tag_55\n      jumpi\n        /* \"#utility.yul\":909:988   */\n      tag_56\n      tag_57\n      jump\t// in\n    tag_56:\n        /* \"#utility.yul\":871:990   */\n    tag_55:\n        /* \"#utility.yul\":1057:1058   */\n      0x00\n        /* \"#utility.yul\":1046:1055   */\n      dup3\n        /* \"#utility.yul\":1042:1059   */\n      add\n        /* \"#utility.yul\":1029:1060   */\n      calldataload\n        /* \"#utility.yul\":1087:1105   */\n      0xffffffffffffffff\n        /* \"#utility.yul\":1079:1085   */\n      dup2\n        /* \"#utility.yul\":1076:1106   */\n      gt\n        /* \"#utility.yul\":1073:1190   */\n      iszero\n      tag_58\n      jumpi\n        /* \"#utility.yul\":1109:1188   */\n      tag_59\n      tag_60\n      jump\t// in\n    tag_59:\n        /* \"#utility.yul\":1073:1190   */\n    tag_58:\n        /* \"#utility.yul\":1214:1277   */\n      tag_61\n        /* \"#utility.yul\":1269:1276   */\n      dup5\n        /* \"#utility.yul\":1260:1266   */\n      dup3\n        /* \"#utility.yul\":1249:1258   */\n      dup6\n        /* \"#utility.yul\":1245:1267   */\n      add\n        /* \"#utility.yul\":1214:1277   */\n      tag_48\n      jump\t// in\n    tag_61:\n        /* \"#utility.yul\":1204:1277   */\n      swap2\n      pop\n        /* \"#utility.yul\":1000:1287   */\n      pop\n        /* \"#utility.yul\":785:1294   */\n      swap3\n      swap2\n      pop\n      pop\n      jump\t// out\n        /* \"#utility.yul\":1300:1418   */\n    tag_62:\n        /* \"#utility.yul\":1387:1411   */\n      tag_64\n        /* \"#utility.yul\":1405:1410   */\n      dup2\n        /* \"#utility.yul\":1387:1411   */\n      tag_65\n      jump\t// in\n    tag_64:\n        /* \"#utility.yul\":1382:1385   */\n      dup3\n        /* \"#utility.yul\":1375:1412   */\n      mstore\n        /* \"#utility.yul\":1300:1418   */\n      pop\n      pop\n      jump\t// out\n        /* \"#utility.yul\":1424:1788   */\n    tag_66:\n        /* \"#utility.yul\":1512:1515   */\n      0x00\n        /* \"#utility.yul\":1540:1579   */\n      tag_68\n        /* \"#utility.yul\":1573:1578   */\n      dup3\n        /* \"#utility.yul\":1540:1579   */\n      tag_69\n      jump\t// in\n    tag_68:\n        /* \"#utility.yul\":1595:1666   */\n      tag_70\n        /* \"#utility.yul\":1659:1665   */\n      dup2\n        /* \"#utility.yul\":1654:1657   */\n      dup6\n        /* \"#utility.yul\":1595:1666   */\n      tag_71\n      jump\t// in\n    tag_70:\n        /* \"#utility.yul\":1588:1666   */\n      swap4\n      pop\n        /* \"#utility.yul\":1675:1727   */\n      tag_72\n        /* \"#utility.yul\":1720:1726   */\n      dup2\n        /* \"#utility.yul\":1715:1718   */\n      dup6\n        /* \"#utility.yul\":1708:1712   */\n      0x20\n        /* \"#utility.yul\":1701:1706   */\n      dup7\n        /* \"#utility.yul\":1697:1713   */\n      add\n        /* \"#utility.yul\":1675:1727   */\n      tag_73\n      jump\t// in\n    tag_72:\n        /* \"#utility.yul\":1752:1781   */\n      tag_74\n        /* \"#utility.yul\":1774:1780   */\n      dup2\n        /* \"#utility.yul\":1752:1781   */\n      tag_75\n      jump\t// in\n    tag_74:\n        /* \"#utility.yul\":1747:1750   */\n      dup5\n        /* \"#utility.yul\":1743:1782   */\n      add\n        /* \"#utility.yul\":1736:1782   */\n      swap2\n      pop\n        /* \"#utility.yul\":1516:1788   */\n      pop\n        /* \"#utility.yul\":1424:1788   */\n      swap3\n      swap2\n      pop\n      pop\n      jump\t// out\n        /* \"#utility.yul\":1794:1912   */\n    tag_76:\n        /* \"#utility.yul\":1881:1905   */\n      tag_78\n        /* \"#utility.yul\":1899:1904   */\n      dup2\n        /* \"#utility.yul\":1881:1905   */\n      tag_79\n      jump\t// in\n    tag_78:\n        /* \"#utility.yul\":1876:1879   */\n      dup3\n        /* \"#utility.yul\":1869:1906   */\n      mstore\n        /* \"#utility.yul\":1794:1912   */\n      pop\n      pop\n      jump\t// out\n        /* \"#utility.yul\":1918:2231   */\n    tag_11:\n        /* \"#utility.yul\":2031:2035   */\n      0x00\n        /* \"#utility.yul\":2069:2071   */\n      0x20\n        /* \"#utility.yul\":2058:2067   */\n      dup3\n        /* \"#utility.yul\":2054:2072   */\n      add\n        /* \"#utility.yul\":2046:2072   */\n      swap1\n      pop\n        /* \"#utility.yul\":2118:2127   */\n      dup2\n        /* \"#utility.yul\":2112:2116   */\n      dup2\n        /* \"#utility.yul\":2108:2128   */\n      sub\n        /* \"#utility.yul\":2104:2105   */\n      0x00\n        /* \"#utility.yul\":2093:2102   */\n      dup4\n        /* \"#utility.yul\":2089:2106   */\n      add\n        /* \"#utility.yul\":2082:2129   */\n      mstore\n        /* \"#utility.yul\":2146:2224   */\n      tag_81\n        /* \"#utility.yul\":2219:2223   */\n      dup2\n        /* \"#utility.yul\":2210:2216   */\n      dup5\n        /* \"#utility.yul\":2146:2224   */\n      tag_66\n      jump\t// in\n    tag_81:\n        /* \"#utility.yul\":2138:2224   */\n      swap1\n      pop\n        /* \"#utility.yul\":1918:2231   */\n      swap3\n      swap2\n      pop\n      pop\n      jump\t// out\n        /* \"#utility.yul\":2237:2459   */\n    tag_17:\n        /* \"#utility.yul\":2330:2334   */\n      0x00\n        /* \"#utility.yul\":2368:2370   */\n      0x20\n        /* \"#utility.yul\":2357:2366   */\n      dup3\n        /* \"#utility.yul\":2353:2371   */\n      add\n        /* \"#utility.yul\":2345:2371   */\n      swap1\n      pop\n        /* \"#utility.yul\":2381:2452   */\n      tag_83\n        /* \"#utility.yul\":2449:2450   */\n      0x00\n        /* \"#utility.yul\":2438:2447   */\n      dup4\n        /* \"#utility.yul\":2434:2451   */\n      add\n        /* \"#utility.yul\":2425:2431   */\n      dup5\n        /* \"#utility.yul\":2381:2452   */\n      tag_76\n      jump\t// in\n    tag_83:\n        /* \"#utility.yul\":2237:2459   */\n      swap3\n      swap2\n      pop\n      pop\n      jump\t// out\n        /* \"#utility.yul\":2465:3018   */\n    tag_21:\n        /* \"#utility.yul\":2642:2646   */\n      0x00\n        /* \"#utility.yul\":2680:2683   */\n      0x80\n        /* \"#utility.yul\":2669:2678   */\n      dup3\n        /* \"#utility.yul\":2665:2684   */\n      add\n        /* \"#utility.yul\":2657:2684   */\n      swap1\n      pop\n        /* \"#utility.yul\":2694:2765   */\n      tag_85\n        /* \"#utility.yul\":2762:2763   */\n      0x00\n        /* \"#utility.yul\":2751:2760   */\n      dup4\n        /* \"#utility.yul\":2747:2764   */\n      add\n        /* \"#utility.yul\":2738:2744   */\n      dup8\n        /* \"#utility.yul\":2694:2765   */\n      tag_76\n      jump\t// in\n    tag_85:\n        /* \"#utility.yul\":2775:2847   */\n      tag_86\n        /* \"#utility.yul\":2843:2845   */\n      0x20\n        /* \"#utility.yul\":2832:2841   */\n      dup4\n        /* \"#utility.yul\":2828:2846   */\n      add\n        /* \"#utility.yul\":2819:2825   */\n      dup7\n        /* \"#utility.yul\":2775:2847   */\n      tag_62\n      jump\t// in\n    tag_86:\n        /* \"#utility.yul\":2857:2929   */\n      tag_87\n        /* \"#utility.yul\":2925:2927   */\n      0x40\n        /* \"#utility.yul\":2914:2923   */\n      dup4\n        /* \"#utility.yul\":2910:2928   */\n      add\n        /* \"#utility.yul\":2901:2907   */\n      dup6\n        /* \"#utility.yul\":2857:2929   */\n      tag_76\n      jump\t// in\n    tag_87:\n        /* \"#utility.yul\":2939:3011   */\n      tag_88\n        /* \"#utility.yul\":3007:3009   */\n      0x60\n        /* \"#utility.yul\":2996:3005   */\n      dup4\n        /* \"#utility.yul\":2992:3010   */\n      add\n        /* \"#utility.yul\":2983:2989   */\n      dup5\n        /* \"#utility.yul\":2939:3011   */\n      tag_76\n      jump\t// in\n    tag_88:\n        /* \"#utility.yul\":2465:3018   */\n      swap6\n      swap5\n      pop\n      pop\n      pop\n      pop\n      pop\n      jump\t// out\n        /* \"#utility.yul\":3024:3153   */\n    tag_42:\n        /* \"#utility.yul\":3058:3064   */\n      0x00\n        /* \"#utility.yul\":3085:3105   */\n      tag_90\n      tag_91\n      jump\t// in\n    tag_90:\n        /* \"#utility.yul\":3075:3105   */\n      swap1\n      pop\n        /* \"#utility.yul\":3114:3147   */\n      tag_92\n        /* \"#utility.yul\":3142:3146   */\n      dup3\n        /* \"#utility.yul\":3134:3140   */\n      dup3\n        /* \"#utility.yul\":3114:3147   */\n      tag_93\n      jump\t// in\n    tag_92:\n        /* \"#utility.yul\":3024:3153   */\n      swap2\n      swap1\n      pop\n      jump\t// out\n        /* \"#utility.yul\":3159:3234   */\n    tag_91:\n        /* \"#utility.yul\":3192:3198   */\n      0x00\n        /* \"#utility.yul\":3225:3227   */\n      0x40\n        /* \"#utility.yul\":3219:3228   */\n      mload\n        /* \"#utility.yul\":3209:3228   */\n      swap1\n      pop\n        /* \"#utility.yul\":3159:3234   */\n      swap1\n      jump\t// out\n        /* \"#utility.yul\":3240:3548   */\n    tag_41:\n        /* \"#utility.yul\":3302:3306   */\n      0x00\n        /* \"#utility.yul\":3392:3410   */\n      0xffffffffffffffff\n        /* \"#utility.yul\":3384:3390   */\n      dup3\n        /* \"#utility.yul\":3381:3411   */\n      gt\n        /* \"#utility.yul\":3378:3434   */\n      iszero\n      tag_96\n      jumpi\n        /* \"#utility.yul\":3414:3432   */\n      tag_97\n      tag_98\n      jump\t// in\n    tag_97:\n        /* \"#utility.yul\":3378:3434   */\n    tag_96:\n        /* \"#utility.yul\":3452:3481   */\n      tag_99\n        /* \"#utility.yul\":3474:3480   */\n      dup3\n        /* \"#utility.yul\":3452:3481   */\n      tag_75\n      jump\t// in\n    tag_99:\n        /* \"#utility.yul\":3444:3481   */\n      swap1\n      pop\n        /* \"#utility.yul\":3536:3540   */\n      0x20\n        /* \"#utility.yul\":3530:3534   */\n      dup2\n        /* \"#utility.yul\":3526:3541   */\n      add\n        /* \"#utility.yul\":3518:3541   */\n      swap1\n      pop\n        /* \"#utility.yul\":3240:3548   */\n      swap2\n      swap1\n      pop\n      jump\t// out\n        /* \"#utility.yul\":3554:3653   */\n    tag_69:\n        /* \"#utility.yul\":3606:3612   */\n      0x00\n        /* \"#utility.yul\":3640:3645   */\n      dup2\n        /* \"#utility.yul\":3634:3646   */\n      mload\n        /* \"#utility.yul\":3624:3646   */\n      swap1\n      pop\n        /* \"#utility.yul\":3554:3653   */\n      swap2\n      swap1\n      pop\n      jump\t// out\n        /* \"#utility.yul\":3659:3828   */\n    tag_71:\n        /* \"#utility.yul\":3743:3754   */\n      0x00\n        /* \"#utility.yul\":3777:3783   */\n      dup3\n        /* \"#utility.yul\":3772:3775   */\n      dup3\n        /* \"#utility.yul\":3765:3784   */\n      mstore\n        /* \"#utility.yul\":3817:3821   */\n      0x20\n        /* \"#utility.yul\":3812:3815   */\n      dup3\n        /* \"#utility.yul\":3808:3822   */\n      add\n        /* \"#utility.yul\":3793:3822   */\n      swap1\n      pop\n        /* \"#utility.yul\":3659:3828   */\n      swap3\n      swap2\n      pop\n      pop\n      jump\t// out\n        /* \"#utility.yul\":3834:3930   */\n    tag_65:\n        /* \"#utility.yul\":3871:3878   */\n      0x00\n        /* \"#utility.yul\":3900:3924   */\n      tag_103\n        /* \"#utility.yul\":3918:3923   */\n      dup3\n        /* \"#utility.yul\":3900:3924   */\n      tag_104\n      jump\t// in\n    tag_103:\n        /* \"#utility.yul\":3889:3924   */\n      swap1\n      pop\n        /* \"#utility.yul\":3834:3930   */\n      swap2\n      swap1\n      pop\n      jump\t// out\n        /* \"#utility.yul\":3936:4062   */\n    tag_104:\n        /* \"#utility.yul\":3973:3980   */\n      0x00\n        /* \"#utility.yul\":4013:4055   */\n      0xffffffffffffffffffffffffffffffffffffffff\n        /* \"#utility.yul\":4006:4011   */\n      dup3\n        /* \"#utility.yul\":4002:4056   */\n      and\n        /* \"#utility.yul\":3991:4056   */\n      swap1\n      pop\n        /* \"#utility.yul\":3936:4062   */\n      swap2\n      swap1\n      pop\n      jump\t// out\n        /* \"#utility.yul\":4068:4145   */\n    tag_79:\n        /* \"#utility.yul\":4105:4112   */\n      0x00\n        /* \"#utility.yul\":4134:4139   */\n      dup2\n        /* \"#utility.yul\":4123:4139   */\n      swap1\n      pop\n        /* \"#utility.yul\":4068:4145   */\n      swap2\n      swap1\n      pop\n      jump\t// out\n        /* \"#utility.yul\":4151:4305   */\n    tag_47:\n        /* \"#utility.yul\":4235:4241   */\n      dup3\n        /* \"#utility.yul\":4230:4233   */\n      dup2\n        /* \"#utility.yul\":4225:4228   */\n      dup4\n        /* \"#utility.yul\":4212:4242   */\n      calldatacopy\n        /* \"#utility.yul\":4297:4298   */\n      0x00\n        /* \"#utility.yul\":4288:4294   */\n      dup4\n        /* \"#utility.yul\":4283:4286   */\n      dup4\n        /* \"#utility.yul\":4279:4295   */\n      add\n        /* \"#utility.yul\":4272:4299   */\n      mstore\n        /* \"#utility.yul\":4151:4305   */\n      pop\n      pop\n      pop\n      jump\t// out\n        /* \"#utility.yul\":4311:4618   */\n    tag_73:\n        /* \"#utility.yul\":4379:4380   */\n      0x00\n        /* \"#utility.yul\":4389:4502   */\n    tag_109:\n        /* \"#utility.yul\":4403:4409   */\n      dup4\n        /* \"#utility.yul\":4400:4401   */\n      dup2\n        /* \"#utility.yul\":4397:4410   */\n      lt\n        /* \"#utility.yul\":4389:4502   */\n      iszero\n      tag_111\n      jumpi\n        /* \"#utility.yul\":4488:4489   */\n      dup1\n        /* \"#utility.yul\":4483:4486   */\n      dup3\n        /* \"#utility.yul\":4479:4490   */\n      add\n        /* \"#utility.yul\":4473:4491   */\n      mload\n        /* \"#utility.yul\":4469:4470   */\n      dup2\n        /* \"#utility.yul\":4464:4467   */\n      dup5\n        /* \"#utility.yul\":4460:4471   */\n      add\n        /* \"#utility.yul\":4453:4492   */\n      mstore\n        /* \"#utility.yul\":4425:4427   */\n      0x20\n        /* \"#utility.yul\":4422:4423   */\n      dup2\n        /* \"#utility.yul\":4418:4428   */\n      add\n        /* \"#utility.yul\":4413:4428   */\n      swap1\n      pop\n        /* \"#utility.yul\":4389:4502   */\n      jump(tag_109)\n    tag_111:\n        /* \"#utility.yul\":4520:4526   */\n      dup4\n        /* \"#utility.yul\":4517:4518   */\n      dup2\n        /* \"#utility.yul\":4514:4527   */\n      gt\n        /* \"#utility.yul\":4511:4612   */\n      iszero\n      tag_112\n      jumpi\n        /* \"#utility.yul\":4600:4601   */\n      0x00\n        /* \"#utility.yul\":4591:4597   */\n      dup5\n        /* \"#utility.yul\":4586:4589   */\n      dup5\n        /* \"#utility.yul\":4582:4598   */\n      add\n        /* \"#utility.yul\":4575:4602   */\n      mstore\n        /* \"#utility.yul\":4511:4612   */\n    tag_112:\n        /* \"#utility.yul\":4360:4618   */\n      pop\n        /* \"#utility.yul\":4311:4618   */\n      pop\n      pop\n      pop\n      jump\t// out\n        /* \"#utility.yul\":4624:4944   */\n    tag_28:\n        /* \"#utility.yul\":4668:4674   */\n      0x00\n        /* \"#utility.yul\":4705:4706   */\n      0x02\n        /* \"#utility.yul\":4699:4703   */\n      dup3\n        /* \"#utility.yul\":4695:4707   */\n      div\n        /* \"#utility.yul\":4685:4707   */\n      swap1\n      pop\n        /* \"#utility.yul\":4752:4753   */\n      0x01\n        /* \"#utility.yul\":4746:4750   */\n      dup3\n        /* \"#utility.yul\":4742:4754   */\n      and\n        /* \"#utility.yul\":4773:4791   */\n      dup1\n        /* \"#utility.yul\":4763:4844   */\n      tag_114\n      jumpi\n        /* \"#utility.yul\":4829:4833   */\n      0x7f\n        /* \"#utility.yul\":4821:4827   */\n      dup3\n        /* \"#utility.yul\":4817:4834   */\n      and\n        /* \"#utility.yul\":4807:4834   */\n      swap2\n      pop\n        /* \"#utility.yul\":4763:4844   */\n    tag_114:\n        /* \"#utility.yul\":4891:4893   */\n      0x20\n        /* \"#utility.yul\":4883:4889   */\n      dup3\n        /* \"#utility.yul\":4880:4894   */\n      lt\n        /* \"#utility.yul\":4860:4878   */\n      dup2\n        /* \"#utility.yul\":4857:4895   */\n      eq\n        /* \"#utility.yul\":4854:4938   */\n      iszero\n      tag_115\n      jumpi\n        /* \"#utility.yul\":4910:4928   */\n      tag_116\n      tag_117\n      jump\t// in\n    tag_116:\n        /* \"#utility.yul\":4854:4938   */\n    tag_115:\n        /* \"#utility.yul\":4675:4944   */\n      pop\n        /* \"#utility.yul\":4624:4944   */\n      swap2\n      swap1\n      pop\n      jump\t// out\n        /* \"#utility.yul\":4950:5231   */\n    tag_93:\n        /* \"#utility.yul\":5033:5060   */\n      tag_119\n        /* \"#utility.yul\":5055:5059   */\n      dup3\n        /* \"#utility.yul\":5033:5060   */\n      tag_75\n      jump\t// in\n    tag_119:\n        /* \"#utility.yul\":5025:5031   */\n      dup2\n        /* \"#utility.yul\":5021:5061   */\n      add\n        /* \"#utility.yul\":5163:5169   */\n      dup2\n        /* \"#utility.yul\":5151:5161   */\n      dup2\n        /* \"#utility.yul\":5148:5170   */\n      lt\n        /* \"#utility.yul\":5127:5145   */\n      0xffffffffffffffff\n        /* \"#utility.yul\":5115:5125   */\n      dup3\n        /* \"#utility.yul\":5112:5146   */\n      gt\n        /* \"#utility.yul\":5109:5171   */\n      or\n        /* \"#utility.yul\":5106:5194   */\n      iszero\n      tag_120\n      jumpi\n        /* \"#utility.yul\":5174:5192   */\n      tag_121\n      tag_98\n      jump\t// in\n    tag_121:\n        /* \"#utility.yul\":5106:5194   */\n    tag_120:\n        /* \"#utility.yul\":5214:5224   */\n      dup1\n        /* \"#utility.yul\":5210:5212   */\n      0x40\n        /* \"#utility.yul\":5203:5225   */\n      mstore\n        /* \"#utility.yul\":4993:5231   */\n      pop\n        /* \"#utility.yul\":4950:5231   */\n      pop\n      pop\n      jump\t// out\n        /* \"#utility.yul\":5237:5417   */\n    tag_117:\n        /* \"#utility.yul\":5285:5362   */\n      0x4e487b7100000000000000000000000000000000000000000000000000000000\n        /* \"#utility.yul\":5282:5283   */\n      0x00\n        /* \"#utility.yul\":5275:5363   */\n      mstore\n        /* \"#utility.yul\":5382:5386   */\n      0x22\n        /* \"#utility.yul\":5379:5380   */\n      0x04\n        /* \"#utility.yul\":5372:5387   */\n      mstore\n        /* \"#utility.yul\":5406:5410   */\n      0x24\n        /* \"#utility.yul\":5403:5404   */\n      0x00\n        /* \"#utility.yul\":5396:5411   */\n      revert\n        /* \"#utility.yul\":5423:5603   */\n    tag_98:\n        /* \"#utility.yul\":5471:5548   */\n      0x4e487b7100000000000000000000000000000000000000000000000000000000\n        /* \"#utility.yul\":5468:5469   */\n      0x00\n        /* \"#utility.yul\":5461:5549   */\n      mstore\n        /* \"#utility.yul\":5568:5572   */\n      0x41\n        /* \"#utility.yul\":5565:5566   */\n      0x04\n        /* \"#utility.yul\":5558:5573   */\n      mstore\n        /* \"#utility.yul\":5592:5596   */\n      0x24\n        /* \"#utility.yul\":5589:5590   */\n      0x00\n        /* \"#utility.yul\":5582:5597   */\n      revert\n        /* \"#utility.yul\":5609:5726   */\n    tag_52:\n        /* \"#utility.yul\":5718:5719   */\n      0x00\n        /* \"#utility.yul\":5715:5716   */\n      dup1\n        /* \"#utility.yul\":5708:5720   */\n      revert\n        /* \"#utility.yul\":5732:5849   */\n    tag_45:\n        /* \"#utility.yul\":5841:5842   */\n      0x00\n        /* \"#utility.yul\":5838:5839   */\n      dup1\n        /* \"#utility.yul\":5831:5843   */\n      revert\n        /* \"#utility.yul\":5855:5972   */\n    tag_60:\n        /* \"#utility.yul\":5964:5965   */\n      0x00\n        /* \"#utility.yul\":5961:5962   */\n      dup1\n        /* \"#utility.yul\":5954:5966   */\n      revert\n        /* \"#utility.yul\":5978:6095   */\n    tag_57:\n        /* \"#utility.yul\":6087:6088   */\n      0x00\n        /* \"#utility.yul\":6084:6085   */\n      dup1\n        /* \"#utility.yul\":6077:6089   */\n      revert\n        /* \"#utility.yul\":6101:6203   */\n    tag_75:\n        /* \"#utility.yul\":6142:6148   */\n      0x00\n        /* \"#utility.yul\":6193:6195   */\n      0x1f\n        /* \"#utility.yul\":6189:6196   */\n      not\n        /* \"#utility.yul\":6184:6186   */\n      0x1f\n        /* \"#utility.yul\":6177:6182   */\n      dup4\n        /* \"#utility.yul\":6173:6187   */\n      add\n        /* \"#utility.yul\":6169:6197   */\n      and\n        /* \"#utility.yul\":6159:6197   */\n      swap1\n      pop\n        /* \"#utility.yul\":6101:6203   */\n      swap2\n      swap1\n      pop\n      jump\t// out\n\n    auxdata: 0xa2646970667358221220d580066cf4ae41f652b758f3c470298ea66fc672018b29d319c6ae443115465464736f6c63430008070033\n}\n",
				"bytecode": {
					"linkReferences": {},
					"object": "60806040526040518060400160405280600b81526020017f43727970746f50756e6b730000000000000000000000000000000000000000008152506000908051906020019061004f929190610067565b50606460015534801561006157600080fd5b5061016b565b8280546100739061010a565b90600052602060002090601f01602090048101928261009557600085556100dc565b82601f106100ae57805160ff19168380011785556100dc565b828001600101855582156100dc579182015b828111156100db5782518255916020019190600101906100c0565b5b5090506100e991906100ed565b5090565b5b808211156101065760008160009055506001016100ee565b5090565b6000600282049050600182168061012257607f821691505b602082108114156101365761013561013c565b5b50919050565b7f4e487b7100000000000000000000000000000000000000000000000000000000600052602260045260246000fd5b6105468061017a6000396000f3fe608060405234801561001057600080fd5b50600436106100575760003560e01c806306fdde031461005c5780633bc5de301461007a578063857a76ec14610084578063bd38216e146100a2578063c47f0027146100c3575b600080fd5b6100646100f3565b60405161007191906102b8565b60405180910390f35b610082610181565b005b61008c610183565b60405161009991906102da565b60405180910390f35b6100aa610189565b6040516100ba94939291906102f5565b60405180910390f35b6100dd60048036038101906100d89190610218565b6101a1565b6040516100ea91906102b8565b60405180910390f35b600080546101009061042a565b80601f016020809104026020016040519081016040528092919081815260200182805461012c9061042a565b80156101795780601f1061014e57610100808354040283529160200191610179565b820191906000526020600020905b81548152906001019060200180831161015c57829003601f168201915b505050505081565b565b60015481565b60008060008043414245935093509350935090919293565b6060919050565b60006101bb6101b68461035f565b61033a565b9050828152602081018484840111156101d7576101d66104f0565b5b6101e28482856103e8565b509392505050565b600082601f8301126101ff576101fe6104eb565b5b813561020f8482602086016101a8565b91505092915050565b60006020828403121561022e5761022d6104fa565b5b600082013567ffffffffffffffff81111561024c5761024b6104f5565b5b610258848285016101ea565b91505092915050565b61026a816103ac565b82525050565b600061027b82610390565b610285818561039b565b93506102958185602086016103f7565b61029e816104ff565b840191505092915050565b6102b2816103de565b82525050565b600060208201905081810360008301526102d28184610270565b905092915050565b60006020820190506102ef60008301846102a9565b92915050565b600060808201905061030a60008301876102a9565b6103176020830186610261565b61032460408301856102a9565b61033160608301846102a9565b95945050505050565b6000610344610355565b9050610350828261045c565b919050565b6000604051905090565b600067ffffffffffffffff82111561037a576103796104bc565b5b610383826104ff565b9050602081019050919050565b600081519050919050565b600082825260208201905092915050565b60006103b7826103be565b9050919050565b600073ffffffffffffffffffffffffffffffffffffffff82169050919050565b6000819050919050565b82818337600083830152505050565b60005b838110156104155780820151818401526020810190506103fa565b83811115610424576000848401525b50505050565b6000600282049050600182168061044257607f821691505b602082108114156104565761045561048d565b5b50919050565b610465826104ff565b810181811067ffffffffffffffff82111715610484576104836104bc565b5b80604052505050565b7f4e487b7100000000000000000000000000000000000000000000000000000000600052602260045260246000fd5b7f4e487b7100000000000000000000000000000000000000000000000000000000600052604160045260246000fd5b600080fd5b600080fd5b600080fd5b600080fd5b6000601f19601f830116905091905056fea2646970667358221220d580066cf4ae41f652b758f3c470298ea66fc672018b29d319c6ae443115465464736f6c63430008070033",
					"opcodes": "PUSH1 0x80 PUSH1 0x40 MSTORE PUSH1 0x40 MLOAD DUP1 PUSH1 0x40 ADD PUSH1 0x40 MSTORE DUP1 PUSH1 0xB DUP2 MSTORE PUSH1 0x20 ADD PUSH32 0x43727970746F50756E6B73000000000000000000000000000000000000000000 DUP2 MSTORE POP PUSH1 0x0 SWAP1 DUP1 MLOAD SWAP1 PUSH1 0x20 ADD SWAP1 PUSH2 0x4F SWAP3 SWAP2 SWAP1 PUSH2 0x67 JUMP JUMPDEST POP PUSH1 0x64 PUSH1 0x1 SSTORE CALLVALUE DUP1 ISZERO PUSH2 0x61 JUMPI PUSH1 0x0 DUP1 REVERT JUMPDEST POP PUSH2 0x16B JUMP JUMPDEST DUP3 DUP1 SLOAD PUSH2 0x73 SWAP1 PUSH2 0x10A JUMP JUMPDEST SWAP1 PUSH1 0x0 MSTORE PUSH1 0x20 PUSH1 0x0 KECCAK256 SWAP1 PUSH1 0x1F ADD PUSH1 0x20 SWAP1 DIV DUP2 ADD SWAP3 DUP3 PUSH2 0x95 JUMPI PUSH1 0x0 DUP6 SSTORE PUSH2 0xDC JUMP JUMPDEST DUP3 PUSH1 0x1F LT PUSH2 0xAE JUMPI DUP1 MLOAD PUSH1 0xFF NOT AND DUP4 DUP1 ADD OR DUP6 SSTORE PUSH2 0xDC JUMP JUMPDEST DUP3 DUP1 ADD PUSH1 0x1 ADD DUP6 SSTORE DUP3 ISZERO PUSH2 0xDC JUMPI SWAP2 DUP3 ADD JUMPDEST DUP3 DUP2 GT ISZERO PUSH2 0xDB JUMPI DUP3 MLOAD DUP3 SSTORE SWAP2 PUSH1 0x20 ADD SWAP2 SWAP1 PUSH1 0x1 ADD SWAP1 PUSH2 0xC0 JUMP JUMPDEST JUMPDEST POP SWAP1 POP PUSH2 0xE9 SWAP2 SWAP1 PUSH2 0xED JUMP JUMPDEST POP SWAP1 JUMP JUMPDEST JUMPDEST DUP1 DUP3 GT ISZERO PUSH2 0x106 JUMPI PUSH1 0x0 DUP2 PUSH1 0x0 SWAP1 SSTORE POP PUSH1 0x1 ADD PUSH2 0xEE JUMP JUMPDEST POP SWAP1 JUMP JUMPDEST PUSH1 0x0 PUSH1 0x2 DUP3 DIV SWAP1 POP PUSH1 0x1 DUP3 AND DUP1 PUSH2 0x122 JUMPI PUSH1 0x7F DUP3 AND SWAP2 POP JUMPDEST PUSH1 0x20 DUP3 LT DUP2 EQ ISZERO PUSH2 0x136 JUMPI PUSH2 0x135 PUSH2 0x13C JUMP JUMPDEST JUMPDEST POP SWAP2 SWAP1 POP JUMP JUMPDEST PUSH32 0x4E487B7100000000000000000000000000000000000000000000000000000000 PUSH1 0x0 MSTORE PUSH1 0x22 PUSH1 0x4 MSTORE PUSH1 0x24 PUSH1 0x0 REVERT JUMPDEST PUSH2 0x546 DUP1 PUSH2 0x17A PUSH1 0x0 CODECOPY PUSH1 0x0 RETURN INVALID PUSH1 0x80 PUSH1 0x40 MSTORE CALLVALUE DUP1 ISZERO PUSH2 0x10 JUMPI PUSH1 0x0 DUP1 REVERT JUMPDEST POP PUSH1 0x4 CALLDATASIZE LT PUSH2 0x57 JUMPI PUSH1 0x0 CALLDATALOAD PUSH1 0xE0 SHR DUP1 PUSH4 0x6FDDE03 EQ PUSH2 0x5C JUMPI DUP1 PUSH4 0x3BC5DE30 EQ PUSH2 0x7A JUMPI DUP1 PUSH4 0x857A76EC EQ PUSH2 0x84 JUMPI DUP1 PUSH4 0xBD38216E EQ PUSH2 0xA2 JUMPI DUP1 PUSH4 0xC47F0027 EQ PUSH2 0xC3 JUMPI JUMPDEST PUSH1 0x0 DUP1 REVERT JUMPDEST PUSH2 0x64 PUSH2 0xF3 JUMP JUMPDEST PUSH1 0x40 MLOAD PUSH2 0x71 SWAP2 SWAP1 PUSH2 0x2B8 JUMP JUMPDEST PUSH1 0x40 MLOAD DUP1 SWAP2 SUB SWAP1 RETURN JUMPDEST PUSH2 0x82 PUSH2 0x181 JUMP JUMPDEST STOP JUMPDEST PUSH2 0x8C PUSH2 0x183 JUMP JUMPDEST PUSH1 0x40 MLOAD PUSH2 0x99 SWAP2 SWAP1 PUSH2 0x2DA JUMP JUMPDEST PUSH1 0x40 MLOAD DUP1 SWAP2 SUB SWAP1 RETURN JUMPDEST PUSH2 0xAA PUSH2 0x189 JUMP JUMPDEST PUSH1 0x40 MLOAD PUSH2 0xBA SWAP5 SWAP4 SWAP3 SWAP2 SWAP1 PUSH2 0x2F5 JUMP JUMPDEST PUSH1 0x40 MLOAD DUP1 SWAP2 SUB SWAP1 RETURN JUMPDEST PUSH2 0xDD PUSH1 0x4 DUP1 CALLDATASIZE SUB DUP2 ADD SWAP1 PUSH2 0xD8 SWAP2 SWAP1 PUSH2 0x218 JUMP JUMPDEST PUSH2 0x1A1 JUMP JUMPDEST PUSH1 0x40 MLOAD PUSH2 0xEA SWAP2 SWAP1 PUSH2 0x2B8 JUMP JUMPDEST PUSH1 0x40 MLOAD DUP1 SWAP2 SUB SWAP1 RETURN JUMPDEST PUSH1 0x0 DUP1 SLOAD PUSH2 0x100 SWAP1 PUSH2 0x42A JUMP JUMPDEST DUP1 PUSH1 0x1F ADD PUSH1 0x20 DUP1 SWAP2 DIV MUL PUSH1 0x20 ADD PUSH1 0x40 MLOAD SWAP1 DUP2 ADD PUSH1 0x40 MSTORE DUP1 SWAP3 SWAP2 SWAP1 DUP2 DUP2 MSTORE PUSH1 0x20 ADD DUP3 DUP1 SLOAD PUSH2 0x12C SWAP1 PUSH2 0x42A JUMP JUMPDEST DUP1 ISZERO PUSH2 0x179 JUMPI DUP1 PUSH1 0x1F LT PUSH2 0x14E JUMPI PUSH2 0x100 DUP1 DUP4 SLOAD DIV MUL DUP4 MSTORE SWAP2 PUSH1 0x20 ADD SWAP2 PUSH2 0x179 JUMP JUMPDEST DUP3 ADD SWAP2 SWAP1 PUSH1 0x0 MSTORE PUSH1 0x20 PUSH1 0x0 KECCAK256 SWAP1 JUMPDEST DUP2 SLOAD DUP2 MSTORE SWAP1 PUSH1 0x1 ADD SWAP1 PUSH1 0x20 ADD DUP1 DUP4 GT PUSH2 0x15C JUMPI DUP3 SWAP1 SUB PUSH1 0x1F AND DUP3 ADD SWAP2 JUMPDEST POP POP POP POP POP DUP2 JUMP JUMPDEST JUMP JUMPDEST PUSH1 0x1 SLOAD DUP2 JUMP JUMPDEST PUSH1 0x0 DUP1 PUSH1 0x0 DUP1 NUMBER COINBASE TIMESTAMP GASLIMIT SWAP4 POP SWAP4 POP SWAP4 POP SWAP4 POP SWAP1 SWAP2 SWAP3 SWAP4 JUMP JUMPDEST PUSH1 0x60 SWAP2 SWAP1 POP JUMP JUMPDEST PUSH1 0x0 PUSH2 0x1BB PUSH2 0x1B6 DUP5 PUSH2 0x35F JUMP JUMPDEST PUSH2 0x33A JUMP JUMPDEST SWAP1 POP DUP3 DUP2 MSTORE PUSH1 0x20 DUP2 ADD DUP5 DUP5 DUP5 ADD GT ISZERO PUSH2 0x1D7 JUMPI PUSH2 0x1D6 PUSH2 0x4F0 JUMP JUMPDEST JUMPDEST PUSH2 0x1E2 DUP5 DUP3 DUP6 PUSH2 0x3E8 JUMP JUMPDEST POP SWAP4 SWAP3 POP POP POP JUMP JUMPDEST PUSH1 0x0 DUP3 PUSH1 0x1F DUP4 ADD SLT PUSH2 0x1FF JUMPI PUSH2 0x1FE PUSH2 0x4EB JUMP JUMPDEST JUMPDEST DUP2 CALLDATALOAD PUSH2 0x20F DUP5 DUP3 PUSH1 0x20 DUP7 ADD PUSH2 0x1A8 JUMP JUMPDEST SWAP2 POP POP SWAP3 SWAP2 POP POP JUMP JUMPDEST PUSH1 0x0 PUSH1 0x20 DUP3 DUP5 SUB SLT ISZERO PUSH2 0x22E JUMPI PUSH2 0x22D PUSH2 0x4FA JUMP JUMPDEST JUMPDEST PUSH1 0x0 DUP3 ADD CALLDATALOAD PUSH8 0xFFFFFFFFFFFFFFFF DUP2 GT ISZERO PUSH2 0x24C JUMPI PUSH2 0x24B PUSH2 0x4F5 JUMP JUMPDEST JUMPDEST PUSH2 0x258 DUP5 DUP3 DUP6 ADD PUSH2 0x1EA JUMP JUMPDEST SWAP2 POP POP SWAP3 SWAP2 POP POP JUMP JUMPDEST PUSH2 0x26A DUP2 PUSH2 0x3AC JUMP JUMPDEST DUP3 MSTORE POP POP JUMP JUMPDEST PUSH1 0x0 PUSH2 0x27B DUP3 PUSH2 0x390 JUMP JUMPDEST PUSH2 0x285 DUP2 DUP6 PUSH2 0x39B JUMP JUMPDEST SWAP4 POP PUSH2 0x295 DUP2 DUP6 PUSH1 0x20 DUP7 ADD PUSH2 0x3F7 JUMP JUMPDEST PUSH2 0x29E DUP2 PUSH2 0x4FF JUMP JUMPDEST DUP5 ADD SWAP2 POP POP SWAP3 SWAP2 POP POP JUMP JUMPDEST PUSH2 0x2B2 DUP2 PUSH2 0x3DE JUMP JUMPDEST DUP3 MSTORE POP POP JUMP JUMPDEST PUSH1 0x0 PUSH1 0x20 DUP3 ADD SWAP1 POP DUP2 DUP2 SUB PUSH1 0x0 DUP4 ADD MSTORE PUSH2 0x2D2 DUP2 DUP5 PUSH2 0x270 JUMP JUMPDEST SWAP1 POP SWAP3 SWAP2 POP POP JUMP JUMPDEST PUSH1 0x0 PUSH1 0x20 DUP3 ADD SWAP1 POP PUSH2 0x2EF PUSH1 0x0 DUP4 ADD DUP5 PUSH2 0x2A9 JUMP JUMPDEST SWAP3 SWAP2 POP POP JUMP JUMPDEST PUSH1 0x0 PUSH1 0x80 DUP3 ADD SWAP1 POP PUSH2 0x30A PUSH1 0x0 DUP4 ADD DUP8 PUSH2 0x2A9 JUMP JUMPDEST PUSH2 0x317 PUSH1 0x20 DUP4 ADD DUP7 PUSH2 0x261 JUMP JUMPDEST PUSH2 0x324 PUSH1 0x40 DUP4 ADD DUP6 PUSH2 0x2A9 JUMP JUMPDEST PUSH2 0x331 PUSH1 0x60 DUP4 ADD DUP5 PUSH2 0x2A9 JUMP JUMPDEST SWAP6 SWAP5 POP POP POP POP POP JUMP JUMPDEST PUSH1 0x0 PUSH2 0x344 PUSH2 0x355 JUMP JUMPDEST SWAP1 POP PUSH2 0x350 DUP3 DUP3 PUSH2 0x45C JUMP JUMPDEST SWAP2 SWAP1 POP JUMP JUMPDEST PUSH1 0x0 PUSH1 0x40 MLOAD SWAP1 POP SWAP1 JUMP JUMPDEST PUSH1 0x0 PUSH8 0xFFFFFFFFFFFFFFFF DUP3 GT ISZERO PUSH2 0x37A JUMPI PUSH2 0x379 PUSH2 0x4BC JUMP JUMPDEST JUMPDEST PUSH2 0x383 DUP3 PUSH2 0x4FF JUMP JUMPDEST SWAP1 POP PUSH1 0x20 DUP2 ADD SWAP1 POP SWAP2 SWAP1 POP JUMP JUMPDEST PUSH1 0x0 DUP2 MLOAD SWAP1 POP SWAP2 SWAP1 POP JUMP JUMPDEST PUSH1 0x0 DUP3 DUP3 MSTORE PUSH1 0x20 DUP3 ADD SWAP1 POP SWAP3 SWAP2 POP POP JUMP JUMPDEST PUSH1 0x0 PUSH2 0x3B7 DUP3 PUSH2 0x3BE JUMP JUMPDEST SWAP1 POP SWAP2 SWAP1 POP JUMP JUMPDEST PUSH1 0x0 PUSH20 0xFFFFFFFFFFFFFFFFFFFFFFFFFFFFFFFFFFFFFFFF DUP3 AND SWAP1 POP SWAP2 SWAP1 POP JUMP JUMPDEST PUSH1 0x0 DUP2 SWAP1 POP SWAP2 SWAP1 POP JUMP JUMPDEST DUP3 DUP2 DUP4 CALLDATACOPY PUSH1 0x0 DUP4 DUP4 ADD MSTORE POP POP POP JUMP JUMPDEST PUSH1 0x0 JUMPDEST DUP4 DUP2 LT ISZERO PUSH2 0x415 JUMPI DUP1 DUP3 ADD MLOAD DUP2 DUP5 ADD MSTORE PUSH1 0x20 DUP2 ADD SWAP1 POP PUSH2 0x3FA JUMP JUMPDEST DUP4 DUP2 GT ISZERO PUSH2 0x424 JUMPI PUSH1 0x0 DUP5 DUP5 ADD MSTORE JUMPDEST POP POP POP POP JUMP JUMPDEST PUSH1 0x0 PUSH1 0x2 DUP3 DIV SWAP1 POP PUSH1 0x1 DUP3 AND DUP1 PUSH2 0x442 JUMPI PUSH1 0x7F DUP3 AND SWAP2 POP JUMPDEST PUSH1 0x20 DUP3 LT DUP2 EQ ISZERO PUSH2 0x456 JUMPI PUSH2 0x455 PUSH2 0x48D JUMP JUMPDEST JUMPDEST POP SWAP2 SWAP1 POP JUMP JUMPDEST PUSH2 0x465 DUP3 PUSH2 0x4FF JUMP JUMPDEST DUP2 ADD DUP2 DUP2 LT PUSH8 0xFFFFFFFFFFFFFFFF DUP3 GT OR ISZERO PUSH2 0x484 JUMPI PUSH2 0x483 PUSH2 0x4BC JUMP JUMPDEST JUMPDEST DUP1 PUSH1 0x40 MSTORE POP POP POP JUMP JUMPDEST PUSH32 0x4E487B7100000000000000000000000000000000000000000000000000000000 PUSH1 0x0 MSTORE PUSH1 0x22 PUSH1 0x4 MSTORE PUSH1 0x24 PUSH1 0x0 REVERT JUMPDEST PUSH32 0x4E487B7100000000000000000000000000000000000000000000000000000000 PUSH1 0x0 MSTORE PUSH1 0x41 PUSH1 0x4 MSTORE PUSH1 0x24 PUSH1 0x0 REVERT JUMPDEST PUSH1 0x0 DUP1 REVERT JUMPDEST PUSH1 0x0 DUP1 REVERT JUMPDEST PUSH1 0x0 DUP1 REVERT JUMPDEST PUSH1 0x0 DUP1 REVERT JUMPDEST PUSH1 0x0 PUSH1 0x1F NOT PUSH1 0x1F DUP4 ADD AND SWAP1 POP SWAP2 SWAP1 POP JUMP INVALID LOG2 PUSH5 0x6970667358 0x22 SLT KECCAK256 0xD5 DUP1 MOD PUSH13 0xF4AE41F652B758F3C470298EA6 PUSH16 0xC672018B29D319C6AE44311546546473 PUSH16 0x6C634300080700330000000000000000 "
				},
				"gasEstimates": {
					"creation": {
						"codeDepositCost": "270000",
						"executionCost": "infinite",
						"totalCost": "infinite"
					},
					"external": {
						"getBlockDetails()": "infinite",
						"getData()": "144",
						"name()": "infinite",
						"numberOfNfts()": "2451",
						"setName(string)": "infinite"
					}
				},
				"methodIdentifiers": {
					"getBlockDetails()": "bd38216e",
					"getData()": "3bc5de30",
					"name()": "06fdde03",
					"numberOfNfts()": "857a76ec",
					"setName(string)": "c47f0027"
				}
			},
			"storageLayout": {
				"storage": [
					{
						"astId": 4,
						"contract": "contracts/variables.sol:Variables",
						"label": "name",
						"offset": 0,
						"slot": "0",
						"type": "t_string_storage"
					},
					{
						"astId": 7,
						"contract": "contracts/variables.sol:Variables",
						"label": "numberOfNfts",
						"offset": 0,
						"slot": "1",
						"type": "t_uint256"
					}
				],
				"types": {
					"t_string_storage": {
						"encoding": "bytes",
						"label": "string",
						"numberOfBytes": "32"
					},
					"t_uint256": {
						"encoding": "inplace",
						"label": "uint256",
						"numberOfBytes": "32"
					}
				}
			},
			"userdoc": {
				"kind": "user",
				"methods": {},
				"version": 1
			}
		}
	}
}